{
    "_format": "hh-sol-artifact-1",
    "contractName": "CrowdFund",
    "sourceName": "contracts/CrowdFund.sol",
    "abi": [
        {
            "anonymous": false,
            "inputs": [
                {
                    "indexed": false,
                    "internalType": "uint256",
                    "name": "campaignId",
                    "type": "uint256"
                },
                {
                    "indexed": false,
                    "internalType": "address",
                    "name": "creator",
                    "type": "address"
                },
                {
                    "indexed": false,
                    "internalType": "uint256",
                    "name": "goal",
                    "type": "uint256"
                },
                {
                    "indexed": false,
                    "internalType": "uint256",
                    "name": "deadline",
                    "type": "uint256"
                }
            ],
            "name": "CampaignCreated",
            "type": "event"
        },
        {
            "anonymous": false,
            "inputs": [
                {
                    "indexed": false,
                    "internalType": "uint256",
                    "name": "campaignId",
                    "type": "uint256"
                },
                {
                    "indexed": false,
                    "internalType": "address",
                    "name": "contributor",
                    "type": "address"
                },
                {
                    "indexed": false,
                    "internalType": "uint256",
                    "name": "amount",
                    "type": "uint256"
                }
            ],
            "name": "Funded",
            "type": "event"
        },
        {
            "inputs": [],
            "name": "campaignCount",
            "outputs": [
                {
                    "internalType": "uint256",
                    "name": "",
                    "type": "uint256"
                }
            ],
            "stateMutability": "view",
            "type": "function"
        },
        {
            "inputs": [
                {
                    "internalType": "uint256",
                    "name": "",
                    "type": "uint256"
                }
            ],
            "name": "campaigns",
            "outputs": [
                {
                    "internalType": "address",
                    "name": "creator",
                    "type": "address"
                },
                {
                    "internalType": "string",
                    "name": "title",
                    "type": "string"
                },
                {
                    "internalType": "string",
                    "name": "description",
                    "type": "string"
                },
                {
                    "internalType": "uint256",
                    "name": "goal",
                    "type": "uint256"
                },
                {
                    "internalType": "uint256",
                    "name": "deadline",
                    "type": "uint256"
                },
                {
                    "internalType": "uint256",
                    "name": "amountCollected",
                    "type": "uint256"
                }
            ],
            "stateMutability": "view",
            "type": "function"
        },
        {
            "inputs": [
                {
                    "internalType": "string",
                    "name": "_title",
                    "type": "string"
                },
                {
                    "internalType": "string",
                    "name": "_description",
                    "type": "string"
                },
                {
                    "internalType": "uint256",
                    "name": "_goal",
                    "type": "uint256"
                },
                {
                    "internalType": "uint256",
                    "name": "_durationInDays",
                    "type": "uint256"
                }
            ],
            "name": "createCampaign",
            "outputs": [],
            "stateMutability": "nonpayable",
            "type": "function"
        },
        {
            "inputs": [
                {
                    "internalType": "uint256",
                    "name": "_id",
                    "type": "uint256"
                }
            ],
            "name": "fund",
            "outputs": [],
            "stateMutability": "payable",
            "type": "function"
        },
        {
            "inputs": [
                {
                    "internalType": "uint256",
                    "name": "_id",
                    "type": "uint256"
                }
            ],
            "name": "getCampaign",
            "outputs": [
                {
                    "internalType": "address",
                    "name": "creator",
                    "type": "address"
                },
                {
                    "internalType": "string",
                    "name": "title",
                    "type": "string"
                },
                {
                    "internalType": "string",
                    "name": "description",
                    "type": "string"
                },
                {
                    "internalType": "uint256",
                    "name": "goal",
                    "type": "uint256"
                },
                {
                    "internalType": "uint256",
                    "name": "deadline",
                    "type": "uint256"
                },
                {
                    "internalType": "uint256",
                    "name": "amountCollected",
                    "type": "uint256"
                }
            ],
            "stateMutability": "view",
            "type": "function"
        }
    ],
    "bytecode": "0x6080604052348015600f57600080fd5b506110558061001f6000396000f3fe60806040526004361061004a5760003560e01c8063141961bc1461004f5780635598f8cc146100915780637274e30d146100d3578063a318f269146100fe578063ca1d209d14610127575b600080fd5b34801561005b57600080fd5b5061007660048036038101906100719190610729565b610143565b60405161008896959493929190610836565b60405180910390f35b34801561009d57600080fd5b506100b860048036038101906100b39190610729565b6102af565b6040516100ca96959493929190610836565b60405180910390f35b3480156100df57600080fd5b506100e8610439565b6040516100f591906108a5565b60405180910390f35b34801561010a57600080fd5b50610125600480360381019061012091906109f5565b61043f565b005b610141600480360381019061013c9190610729565b61058d565b005b60016020528060005260406000206000915090508060000160009054906101000a900473ffffffffffffffffffffffffffffffffffffffff169080600101805461018c90610ac3565b80601f01602080910402602001604051908101604052809291908181526020018280546101b890610ac3565b80156102055780601f106101da57610100808354040283529160200191610205565b820191906000526020600020905b8154815290600101906020018083116101e857829003601f168201915b50505050509080600201805461021a90610ac3565b80601f016020809104026020016040519081016040528092919081815260200182805461024690610ac3565b80156102935780601f1061026857610100808354040283529160200191610293565b820191906000526020600020905b81548152906001019060200180831161027657829003601f168201915b5050505050908060030154908060040154908060050154905086565b60006060806000806000806001600089815260200190815260200160002090508060000160009054906101000a900473ffffffffffffffffffffffffffffffffffffffff16816001018260020183600301548460040154856005015484805461031790610ac3565b80601f016020809104026020016040519081016040528092919081815260200182805461034390610ac3565b80156103905780601f1061036557610100808354040283529160200191610390565b820191906000526020600020905b81548152906001019060200180831161037357829003601f168201915b505050505094508380546103a390610ac3565b80601f01602080910402602001604051908101604052809291908181526020018280546103cf90610ac3565b801561041c5780601f106103f15761010080835404028352916020019161041c565b820191906000526020600020905b8154815290600101906020018083116103ff57829003601f168201915b505050505093509650965096509650965096505091939550919395565b60005481565b60008211610482576040517f08c379a000000000000000000000000000000000000000000000000000000000815260040161047990610b40565b60405180910390fd5b60008081548092919061049490610b8f565b9190505550600060016000805481526020019081526020016000209050338160000160006101000a81548173ffffffffffffffffffffffffffffffffffffffff021916908373ffffffffffffffffffffffffffffffffffffffff160217905550848160010190816105059190610d83565b50838160020190816105179190610d83565b5082816003018190555062015180826105309190610e55565b4261053b9190610e97565b81600401819055507f91b289a829e71d811b8c69e4a24ba2d40d115d8a236e9a724cb3bb2d43cf72236000543385846004015460405161057e9493929190610ecb565b60405180910390a15050505050565b6000600160008381526020019081526020016000209050806004015442106105ea576040517f08c379a00000000000000000000000000000000000000000000000000000000081526004016105e190610f5c565b60405180910390fd5b6000341161062d576040517f08c379a000000000000000000000000000000000000000000000000000000000815260040161062490610fc8565b60405180910390fd5b348160050160008282546106419190610e97565b92505081905550348160060160003373ffffffffffffffffffffffffffffffffffffffff1673ffffffffffffffffffffffffffffffffffffffff16815260200190815260200160002060008282546106999190610e97565b925050819055507f38c48552690c96ec2872092ac1db6c19fb59f5a8c5b49bbf41ed4886d0ca69268233346040516106d393929190610fe8565b60405180910390a15050565b6000604051905090565b600080fd5b600080fd5b6000819050919050565b610706816106f3565b811461071157600080fd5b50565b600081359050610723816106fd565b92915050565b60006020828403121561073f5761073e6106e9565b5b600061074d84828501610714565b91505092915050565b600073ffffffffffffffffffffffffffffffffffffffff82169050919050565b600061078182610756565b9050919050565b61079181610776565b82525050565b600081519050919050565b600082825260208201905092915050565b60005b838110156107d15780820151818401526020810190506107b6565b60008484015250505050565b6000601f19601f8301169050919050565b60006107f982610797565b61080381856107a2565b93506108138185602086016107b3565b61081c816107dd565b840191505092915050565b610830816106f3565b82525050565b600060c08201905061084b6000830189610788565b818103602083015261085d81886107ee565b9050818103604083015261087181876107ee565b90506108806060830186610827565b61088d6080830185610827565b61089a60a0830184610827565b979650505050505050565b60006020820190506108ba6000830184610827565b92915050565b600080fd5b600080fd5b7f4e487b7100000000000000000000000000000000000000000000000000000000600052604160045260246000fd5b610902826107dd565b810181811067ffffffffffffffff82111715610921576109206108ca565b5b80604052505050565b60006109346106df565b905061094082826108f9565b919050565b600067ffffffffffffffff8211156109605761095f6108ca565b5b610969826107dd565b9050602081019050919050565b82818337600083830152505050565b600061099861099384610945565b61092a565b9050828152602081018484840111156109b4576109b36108c5565b5b6109bf848285610976565b509392505050565b600082601f8301126109dc576109db6108c0565b5b81356109ec848260208601610985565b91505092915050565b60008060008060808587031215610a0f57610a0e6106e9565b5b600085013567ffffffffffffffff811115610a2d57610a2c6106ee565b5b610a39878288016109c7565b945050602085013567ffffffffffffffff811115610a5a57610a596106ee565b5b610a66878288016109c7565b9350506040610a7787828801610714565b9250506060610a8887828801610714565b91505092959194509250565b7f4e487b7100000000000000000000000000000000000000000000000000000000600052602260045260246000fd5b60006002820490506001821680610adb57607f821691505b602082108103610aee57610aed610a94565b5b50919050565b7f476f616c206d757374206265203e203000000000000000000000000000000000600082015250565b6000610b2a6010836107a2565b9150610b3582610af4565b602082019050919050565b60006020820190508181036000830152610b5981610b1d565b9050919050565b7f4e487b7100000000000000000000000000000000000000000000000000000000600052601160045260246000fd5b6000610b9a826106f3565b91507fffffffffffffffffffffffffffffffffffffffffffffffffffffffffffffffff8203610bcc57610bcb610b60565b5b600182019050919050565b60008190508160005260206000209050919050565b60006020601f8301049050919050565b600082821b905092915050565b600060088302610c397fffffffffffffffffffffffffffffffffffffffffffffffffffffffffffffffff82610bfc565b610c438683610bfc565b95508019841693508086168417925050509392505050565b6000819050919050565b6000610c80610c7b610c76846106f3565b610c5b565b6106f3565b9050919050565b6000819050919050565b610c9a83610c65565b610cae610ca682610c87565b848454610c09565b825550505050565b600090565b610cc3610cb6565b610cce818484610c91565b505050565b5b81811015610cf257610ce7600082610cbb565b600181019050610cd4565b5050565b601f821115610d3757610d0881610bd7565b610d1184610bec565b81016020851015610d20578190505b610d34610d2c85610bec565b830182610cd3565b50505b505050565b600082821c905092915050565b6000610d5a60001984600802610d3c565b1980831691505092915050565b6000610d738383610d49565b9150826002028217905092915050565b610d8c82610797565b67ffffffffffffffff811115610da557610da46108ca565b5b610daf8254610ac3565b610dba828285610cf6565b600060209050601f831160018114610ded5760008415610ddb578287015190505b610de58582610d67565b865550610e4d565b601f198416610dfb86610bd7565b60005b82811015610e2357848901518255600182019150602085019450602081019050610dfe565b86831015610e405784890151610e3c601f891682610d49565b8355505b6001600288020188555050505b505050505050565b6000610e60826106f3565b9150610e6b836106f3565b9250828202610e79816106f3565b91508282048414831517610e9057610e8f610b60565b5b5092915050565b6000610ea2826106f3565b9150610ead836106f3565b9250828201905080821115610ec557610ec4610b60565b5b92915050565b6000608082019050610ee06000830187610827565b610eed6020830186610788565b610efa6040830185610827565b610f076060830184610827565b95945050505050565b7f43616d706169676e20656e646564000000000000000000000000000000000000600082015250565b6000610f46600e836107a2565b9150610f5182610f10565b602082019050919050565b60006020820190508181036000830152610f7581610f39565b9050919050565b7f4d7573742073656e642045544820746f2066756e640000000000000000000000600082015250565b6000610fb26015836107a2565b9150610fbd82610f7c565b602082019050919050565b60006020820190508181036000830152610fe181610fa5565b9050919050565b6000606082019050610ffd6000830186610827565b61100a6020830185610788565b6110176040830184610827565b94935050505056fea26469706673582212206d81e1cbf6299e42c8e662f37326015b59c5a54dd3902b9f4bdc862eedb91ccb64736f6c634300081c0033",
    "linkReferences": {},
    "deployedLinkReferences": {}
}